{
  "_format": "hh-sol-artifact-1",
  "contractName": "Messenger",
  "sourceName": "contracts/Messenger.sol",
  "abi": [
    {
      "inputs": [
        {
          "internalType": "uint256",
          "name": "",
          "type": "uint256"
        }
      ],
      "name": "Users",
      "outputs": [
        {
          "internalType": "address",
          "name": "",
          "type": "address"
        }
      ],
      "stateMutability": "view",
      "type": "function"
    },
    {
      "inputs": [],
      "name": "addUsers",
      "outputs": [],
      "stateMutability": "nonpayable",
      "type": "function"
    },
    {
      "inputs": [],
      "name": "getUsers",
      "outputs": [
        {
          "internalType": "address[]",
          "name": "",
          "type": "address[]"
        }
      ],
      "stateMutability": "view",
      "type": "function"
    }
  ],
  "bytecode": "0x608060405234801561001057600080fd5b506103a9806100206000396000f3fe608060405234801561001057600080fd5b50600436106100405760003560e01c8062ce8e3e146100455780631e98fd1c146100635780633ae8038e14610093575b600080fd5b61004d61009d565b60405161005a91906102bf565b60405180910390f35b61007d6004803603810190610078919061031c565b61012b565b60405161008a9190610358565b60405180910390f35b61009b61016a565b005b6060600080548060200260200160405190810160405280929190818152602001828054801561012157602002820191906000526020600020905b8160009054906101000a900473ffffffffffffffffffffffffffffffffffffffff1673ffffffffffffffffffffffffffffffffffffffff16815260200190600101908083116100d7575b5050505050905090565b6000818154811061013b57600080fd5b906000526020600020016000915054906101000a900473ffffffffffffffffffffffffffffffffffffffff1681565b6000339080600181540180825580915050600190039060005260206000200160009091909190916101000a81548173ffffffffffffffffffffffffffffffffffffffff021916908373ffffffffffffffffffffffffffffffffffffffff160217905550565b600081519050919050565b600082825260208201905092915050565b6000819050602082019050919050565b600073ffffffffffffffffffffffffffffffffffffffff82169050919050565b6000610226826101fb565b9050919050565b6102368161021b565b82525050565b6000610248838361022d565b60208301905092915050565b6000602082019050919050565b600061026c826101cf565b61027681856101da565b9350610281836101eb565b8060005b838110156102b2578151610299888261023c565b97506102a483610254565b925050600181019050610285565b5085935050505092915050565b600060208201905081810360008301526102d98184610261565b905092915050565b600080fd5b6000819050919050565b6102f9816102e6565b811461030457600080fd5b50565b600081359050610316816102f0565b92915050565b600060208284031215610332576103316102e1565b5b600061034084828501610307565b91505092915050565b6103528161021b565b82525050565b600060208201905061036d6000830184610349565b9291505056fea26469706673582212205903a574b008724a46d11a5ac3e0c31385a5f1a4aadb96469aff6925e3ac972a64736f6c63430008110033",
  "linkReferences": {},
  "deployedLinkReferences": {}
}