{
  "_format": "hh-sol-artifact-1",
  "contractName": "Messenger",
  "sourceName": "contracts/Messenger.sol",
  "abi": [
    {
      "inputs": [
        {
          "internalType": "uint256",
          "name": "",
          "type": "uint256"
        }
      ],
      "name": "Users",
      "outputs": [
        {
          "internalType": "address",
          "name": "",
          "type": "address"
        }
      ],
      "stateMutability": "view",
      "type": "function"
    },
    {
      "inputs": [],
      "name": "addUsers",
      "outputs": [],
      "stateMutability": "nonpayable",
      "type": "function"
    },
    {
      "inputs": [],
      "name": "getUsers",
      "outputs": [
        {
          "internalType": "address[]",
          "name": "",
          "type": "address[]"
        }
      ],
      "stateMutability": "view",
      "type": "function"
    }
  ],
  "bytecode": "0x608060405234801561001057600080fd5b50610505806100206000396000f3fe608060405234801561001057600080fd5b50600436106100405760003560e01c8062ce8e3e146100455780631e98fd1c146100635780633ae8038e14610093575b600080fd5b61004d61009d565b60405161005a9190610375565b60405180910390f35b61007d600480360381019061007891906103d2565b61012b565b60405161008a919061040e565b60405180910390f35b61009b61016a565b005b6060600080548060200260200160405190810160405280929190818152602001828054801561012157602002820191906000526020600020905b8160009054906101000a900473ffffffffffffffffffffffffffffffffffffffff1673ffffffffffffffffffffffffffffffffffffffff16815260200190600101908083116100d7575b5050505050905090565b6000818154811061013b57600080fd5b906000526020600020016000915054906101000a900473ffffffffffffffffffffffffffffffffffffffff1681565b6000805b60008054905081101561020d573373ffffffffffffffffffffffffffffffffffffffff16600082815481106101a6576101a5610429565b5b9060005260206000200160009054906101000a900473ffffffffffffffffffffffffffffffffffffffff1673ffffffffffffffffffffffffffffffffffffffff16036101f557600191506101fa565b600091505b808061020590610487565b91505061016e565b50600015158115151461021f57600080fd5b6000339080600181540180825580915050600190039060005260206000200160009091909190916101000a81548173ffffffffffffffffffffffffffffffffffffffff021916908373ffffffffffffffffffffffffffffffffffffffff16021790555050565b600081519050919050565b600082825260208201905092915050565b6000819050602082019050919050565b600073ffffffffffffffffffffffffffffffffffffffff82169050919050565b60006102dc826102b1565b9050919050565b6102ec816102d1565b82525050565b60006102fe83836102e3565b60208301905092915050565b6000602082019050919050565b600061032282610285565b61032c8185610290565b9350610337836102a1565b8060005b8381101561036857815161034f88826102f2565b975061035a8361030a565b92505060018101905061033b565b5085935050505092915050565b6000602082019050818103600083015261038f8184610317565b905092915050565b600080fd5b6000819050919050565b6103af8161039c565b81146103ba57600080fd5b50565b6000813590506103cc816103a6565b92915050565b6000602082840312156103e8576103e7610397565b5b60006103f6848285016103bd565b91505092915050565b610408816102d1565b82525050565b600060208201905061042360008301846103ff565b92915050565b7f4e487b7100000000000000000000000000000000000000000000000000000000600052603260045260246000fd5b7f4e487b7100000000000000000000000000000000000000000000000000000000600052601160045260246000fd5b60006104928261039c565b91507fffffffffffffffffffffffffffffffffffffffffffffffffffffffffffffffff82036104c4576104c3610458565b5b60018201905091905056fea2646970667358221220a54c8b91adbcb68f2d96656e7c9b7cc40cd0b6c5faad44da04e56c6ed3c469fd64736f6c63430008110033",
  "linkReferences": {},
  "deployedLinkReferences": {}
}